:020000040001F9
:10C0000000000120F9E7010039E801003BE80100E8
:10C010003DE801003FE8010041E8010000000000A8
:10C0200000000000000000000000000043E80100E4
:10C0300045E801000000000047E8010011E70100A9
:10C040004BE801004BE80100E1E301004BE801008F
:10C050004BE801004BE80100EDE301004BE8010073
:10C060004BE801004BE801004BE801004BE8010000
:10C070004BE801004BE801004BE801004BE80100F0
:10C080004BE801004BE801004BE801004BE80100E0
:10C090004BE801004BE80100BD1302004BE8010032
:10C0A0004BE801004BE801004BE801004BE80100C0
:10C0B0004BE801004BE80100000000000000000018
:10C0C0004BE801004BE801004BE801004BE80100A0
:10C0D0004BE801004BE801004BE8010000000000C4
:10C0E0000000000000000000000000000000000050
:10C0F0000000000000000000000000000000000040
:10C10000000000000000000000000000000000002F
:10C11000000000000000000000000000000000001F
:10C4000010B5054C237833B9044B13B10448AFF38E
:10C4100000800123237010BD304100200000000087
:10C42000846B020008B5064B1BB106480649AFF302
:10C4300000800648036813B1054B03B1984708BD57
:10C4400000000000846B02003441002028410020DD
:10C4500000000000BFF34F8F054A064BD16801F47E
:10C46000E0610B43D360BFF34F8F00BFFDE700BF18
:10C4700000ED00E00400FA050148024901F00EBD9C
:10C48000B0420020EC57020038B52DED048B052595
:10C4900000240E2002F0F6F90444022002F040F9D4
:10C4A000013DF6D107EE904AB8EEE79AF1EE047A34
:10C4B00089EE279A1D491E489FED1E8ADFED1E7AE0
:10C4C00089EE088A28EE278A01F0CDFCBDEEC99AD4
:10C4D0000A2219EE101A164801F026FD17491448D1
:10C4E00001F0C1FC18EE100A05F0B2FA78EE088AE5
:10C4F00041EC100B03210E4801F0E6FD10490C48F9
:10C5000001F0B1FC18EE900A05F0A2FA41EC100B14
:10C510000221074801F0D8FD05480A4901F0BEFC98
:10C52000B0EE680ABDEC048B38BD00BF2D58020088
:10C53000B042002000C07F44333353403B580200D8
:10C540004B580200FC5D020010B51E4C1E491F48EE
:10C550000023237001F0A2FC1D491C4801F083FC5C
:10C560001C4B1A4819680A2201F0EAFC1A491748BC
:10C5700001F094FC1949154801F075FC184B13485B
:10C5800019680A2201F0DCFC1649104801F086FC0B
:10C5900015490E4801F067FC21460C4801F07EFC6D
:10C5A00012490A4801F05FFC114B124A1978124BEC
:10C5B000064800290CBF11461946BDE8104001F09D
:10C5C0006DBC00BF044000206C580200B042002047
:10C5D0008B580200004000209E580200A158020023
:10C5E00048400020B4580200B8580200CB5802005E
:10C5F0005040002069580200655802000148024975
:10C6000001F04CBCB0420020E058020008B50920FF
:10C61000012102F031FA09200021BDE8084002F0B2
:10C620008BBA000038B50B4C0B4D207002F06AF845
:10C6300024780A4B012C18604FF0090004D12146E0
:10C6400002F07AFA2C7038BD002102F075FA00234E
:10C650002B7038BD254200205C420020584200204B
:10C6600038B51F491F48204C01F018FC0120FFF786
:10C67000D9FF1E4801F0D4F81D480A2109220223DF
:10C6800001F0FAF91A48216801F024FB0546154823
:10C690003DB9184901F002FC0520FFF7C3FF284609
:10C6A00038BD154901F0DFFBD4E9000105F0EEF9D2
:10C6B00009A3D3E9002305F049FB41EC100B02214B
:10C6C000084801F001FD0D49064801F0E7FB002094
:10C6D000FFF7A8FF012038BD0000000080842E4134
:10C6E000FC580200B0420020484000206042002078
:10C6F00074420020115902004459020059590200A5
:10C7000038B501F0FFFF114B1B78023B0546052BA6
:10C710001AD8DFE803F0030A060808084FF47A7312
:10C7200004E0642302E0962300E0FA23084C226828
:10C73000AA1A9A4208D3074B1978092081F00101FF
:10C74000197002F0F9F9256038BD00BF25420020BC
:10C75000584200205C42002010B51249124801F0F6
:10C760009DFB1249104801F099FB11490E4801F058
:10C7700095FB0620FFF756FF01F0C4FF0446FFF7C4
:10C78000BFFF642001F0CCFF01F0BCFF47F2305343
:10C79000001B9842F3D90749034801F07FFBFFF7DC
:10C7A00059FE00BF5F590200B0420020A4590200A8
:10C7B000ED590200235A0200014800F0EBBC00BF13
:10C7C0004C4100200000000030B5022089B0FFF786
:10C7D00029FFA349A34801F061FBA349A14801F047
:10C7E0005DFB02A8A14901F073FEFFF789FF9D4898
:10C7F00001F0E4FC002840F3A2810A2205A899492F
:10C8000001F088FC05A902A801F074FE05A801F05A
:10C810001DFE02A801F048FF9549924801F023FB54
:10C8200002A9904801F030FB924905A801F050FEA2
:10C8300005A902A801F008FF044605A801F006FEBC
:10C8400005A8ACB102A90622049B01F007FF05A8C8
:10C8500001F052FF054605A801F0F8FD092D04D9A5
:10C86000854C80482560854934E07E48844964E1F0
:10C87000844901F02DFE05A902A801F0E5FE054658
:10C8800005A801F0E3FD05A8002D31D0049B02A905
:10C89000092201F0E3FE7C4905986A4606F06CF82F
:10C8A000044605A801F0D2FD012C1ED1DDE90023CC
:10C8B00067A1D1E9000168A5D5E90045801841EBE1
:10C8C00003018D4208BF84420CD3704C6548704907
:10C8D000C4E9002301F0C7FA216862480A2201F086
:10C8E00047FB2CE15F486B4927E15E486A4924E138
:10C8F0006A4901F0EDFD05A902A801F0A5FE044674
:10C9000005A801F0A3FD05A864B1049B02A90522B6
:10C9100001F0A4FE079B013B3E2B40F214815148DD
:10C920005F491EE15F4901F0D3FD05A902A801F0AE
:10C930008BFE044605A801F089FD05A8ECB108228C
:10C9400002A9049B584C01F089FE05A801F0D4FE11
:10C95000054605A801F07AFD6B1E5D425D41534915
:10C960004048257001F07FFA2178514B514A3D48EB
:10C9700000290CBF11461946DFE04F4901F0A8FD20
:10C9800002A805A901F02BFE044605A801F05EFDF2
:10C99000002C00F0AB804949324801F07FFA484949
:10C9A000304801F060FA344B2E4819680A2201F031
:10C9B000C7FA44492B4801F071FA4349294801F06C
:10C9C00052FA324B274819680A2201F0B9FA3F4956
:10C9D000244801F063FA3E49224801F044FA3D49F7
:10C9E000204801F05BFA3C491E4801F03CFA2E4B0E
:10C9F000304A19782E4B1B4800290CBF11461946A6
:10CA000001F04CFA3549174801F02DFA0A220121AC
:10CA1000144801F089FA3249124801F024FA0A2236
:10CA20000121104801F082FAFFF72EFD10EE104AA6
:10CA30002C490C4801F017FA204605F009F841ECA2
:10CA4000100B0221074801F03FFB0648264974E01D
:10CA5000FF1E0AFAFFFFFFFFFEE8A43500000000FA
:10CA60005A5A0200B0420020765A02006067020063
:10CA7000CB5A0200D15A020000400020D85A0200CE
:10CA8000F05A02001D5B0200275B020048400020B4
:10CA90002C5B0200445B0200865B0200A75B020085
:10CAA0007E5C0200AD5B020050400020B65B0200DD
:10CAB0006558020069580200D05B0200D55B020095
:10CAC0008B5802009E580200A1580200B458020080
:10CAD000B858020004400020CB580200005C02005D
:10CAE000585A0200155C0200295C0200204905A882
:10CAF00001F0EEFC02A805A901F071FD044605A8AD
:10CB000001F0A4FC14B1FFF779FD18E0194905A85C
:10CB100001F0DEFC05A902A801F061FD054605A8AB
:10CB200001F094FC14483DB1144901F0B7F92046D6
:10CB3000FFF778FDFFF78EFC114901F0AFF90A20ED
:10CB400001F0EEFD51E60F4C05993F22204605F01D
:10CB5000B3FF0D49084884F83F5001F084F90648B6
:10CB6000214601F09BF905A801F070FCE7E700BF42
:10CB70005B5C0200C45A0200B0420020605C02000C
:10CB80006D5C020004400020B35C0200AFF3008043
:10CB90002DE9F0472DED068B012090B0FFF76CFCDE
:10CBA000FFF772FCF0EE40AAFFF75AFD044650B9B9
:10CBB0000520FFF737FDAB49AB4801F06FF9204680
:10CBC000FFF75AFCE1E1A94904A801F081FC0A221F
:10CBD000782101A801F0AEFC01A904A801F0E0FC55
:10CBE000A34901F0EAFC01469F4801F04DF901A874
:10CBF00001F02CFC04A801F029FC4FF416519A48CE
:10CC000001F0EAFB0320FFF70DFD01F07BFD8246FA
:10CC100001F078FD974BCAEB000098423BD8FFF734
:10CC20006FFD914801F0CAFA002830DD8E48924C21
:10CC300001F0CAFAC1B2204600F072FD2546002874
:10CC4000EFD06378002BECD02378002BE9D094F858
:10CC50008930002BE5D094F88830002BE1D0D4F84F
:10CC600090200023022A84F88930DAD994F8992098
:10CC7000002AD6D094F89820002AD2D084F899308F
:10CC8000D4F8A030013BB3F5F97FCAD824E10520E0
:10CC900001F046FDBCE70024734801F069FA00206A
:10CCA000FFF7EAFB8CB101238DED049B8DED068B24
:10CCB0000896CDF824800A978DF82C908DED0CAA5B
:10CCC0008DF8383068486D491BE06D49664801F0C1
:10CCD000E5F80620FFF7A6FC6A4B1B7863B36A4BA6
:10CCE0001B784BB3694D0FCD04AC0FC40FCD0FC4EF
:10CCF00095E80F0084E80F0002235B4864498DF833
:10CD0000383001F0CBF89DF83810CDED0DAA012395
:10CD10008DF839308DF83A3099B900230022CDE9E9
:10CD20000423CDE90623002308935A4B09910A9165
:10CD30008DF82C100C9304E057494B4801F0AEF8E5
:10CD400085E05649484801F0A9F85549464801F0A0
:10CD50008AF89DED040B0621434801F0B8F95149CA
:10CD6000414801F080F89DED060B06213E4801F098
:10CD7000AEF94D493C4801F076F8089804F068FE99
:10CD800041EC100B0221384801F09EF94749364822
:10CD900001F084F84649344801F065F80A229DF80C
:10CDA0002C10314801F0DAF842492F4801F05BF8C5
:10CDB0000C9804F04DFE41EC100B02212A4801F0C2
:10CDC00086F93D49284801F04EF80D9804F040FEE0
:10CDD00041EC100B0221244801F076F93749224832
:10CDE00001F05CF83649204801F03DF80A229DF830
:10CDF00038101D4801F0B2F832491B4801F033F8F1
:10CE00000A229DF83910184801F0A6F82E49164854
:10CE100001F029F80A229DF83A10134801F09EF813
:10CE20000120FFF7FFFB0021284800F0C7FF302258
:10CE300004A9264800F09EFE0021244800F05FFE71
:10CE40000948234901F02AF80420FFF7EBFB2149A8
:10CE5000054801F023F81D4800F0CCFE0020FFF744
:10CE6000E1FB92E0D75C0200B0420020FE5C0200D1
:10CE70001B5D0200BFD401004C410020215D020077
:10CE8000375D02005040002024420020284200204C
:10CE9000645D0200E1FAC742905D0200B05D0200ED
:10CEA000C55D0200CD5D0200D55D0200DD5D0200C2
:10CEB000E05D0200E95D0200F25D0200FB5D020040
:10CEC000FE5D02000C5E0200585A0200744200200F
:10CED000175E0200385E02002E4C204600F03CFA3D
:10CEE0002046B0EE409AF0EE609A00F05DFA95F8B8
:10CEF0007830B0EE408AF0EE608A002B43D00023F9
:10CF000084F87930D4F8800004F090FD0022224BA0
:10CF100004F01CFF05F0D2F8064695F848301D4A8B
:10CF20002BB1002382F84930D2F84C8000E09846BB
:10CF300095F83870174B1FB10022DF6B83F839204A
:10CF400095ED28AADFED157A95F89090B8EECAAA6B
:10CF500000238AEE27AA85F8893085F89930104B8E
:10CF600001221E61C3F814809F6183F81C9083F82E
:10CF70002820144683ED009B83ED028B83ED08AAE5
:10CF8000084B1A7088E60026C7E710B0BDEC068B88
:10CF9000BDE8F0874C410020000059400000C84225
:10CFA000284200202442002010B5144C1449154892
:10CFB00000F059FF0A222168124800F0C1FF12490F
:10CFC000104800F06BFF11490E4800F067FF0D4854
:10CFD00001F0ECF80E490B4800F060FF23684FF4B5
:10CFE0007A70584301F09CFB06480A4900F056FF4E
:10CFF0004FF47A7001F094FBFAE700BF0040002084
:10D00000565E0200B0420020135B02009A5E0200EE
:10D01000C35E0200FF5E020030B54FF4E13187B01D
:10D020004E4801F0D9F9FFF7F1FA0120FFF7FAFABB
:10D030004B494A4800F032FF4A49484800F013FF84
:10D040000A220121454800F06FFF4749434800F09C
:10D050000AFF0A220121414800F068FF43493F4886
:10D0600000F01CFF0020FFF707FA414903A801F078
:10D070002FFA0A22B421684601F05CFA694603A837
:10D0800001F08EFA3B4901F098FA0146334800F06E
:10D09000FBFE684601F0DAF903A801F0D7F936493A
:10D0A00003A801F015FA0A210A46684601F042FA7F
:10D0B000694603A801F074FA304901F07EFA01468E
:10D0C000264800F0E1FE684601F0C0F903A801F02F
:10D0D000BDF901F017FB2A490446684601F0F8F94A
:10D0E00001F010FB42F20F73001B984229D81B4835
:10D0F00001F064F800281BDD0A2203A8174901F09B
:10D1000009F803A9684601F0F5F903A801F09EF9B2
:10D11000684601F0C9FA1B4903A801F0D9F968462D
:10D1200003A901F05CFA054603A801F08FF91DB9C7
:10D13000322001F0F5FAD3E70120FFF79DF9FFF760
:10D1400043FB1149054800F0A9FE0020FFF76AFAE9
:10D15000FFF7FAF9FFF71CFDFFF726FFB0420020AA
:10D160002F5F0200025C0200585A0200585F020062
:10D17000665F02001B5D0200845F02009B5F02008D
:10D1800060670200AF5F0200B65F0200FFF744BFB6
:10D19000FFF7E2BA002202210270427082808260B0
:10D1A00002730282426102768283026280F8242046
:10D1B0000285C26280F8302080F8382080F839205B
:10D1C000C26380F8482080F84920C26480F8582063
:10D1D00080F85920026680F8682080F8692002678C
:10D1E00080F8782080F87920C0F8802080F88820A6
:10D1F00080F88920C0F8902080F8982080F8992045
:10D20000C0F8A02080F8A82080F8A92080F8B910E4
:10D2100080F8BA2080F8BB2080F8BC20C0F8C0207D
:10D22000C0F8C420C0F8C820C0F8CC20C0F8D02076
:10D23000C0F8D42080F8AA207047A1F14103052B43
:10D2400002D8A1F137007047A1F16103052B94BF0B
:10D25000A1F15700A1F130007047F8B50778B7F198
:10D260002D035F425F41044607B1441C204605F090
:10D270004BFA64254543264634460136207805F0AE
:10D280006DFA0028F8D123782E2B0FD1607805F0A5
:10D2900065FA58B16378A078303B0A2202FB035547
:10D2A00005F05CFA10B1A378303B1D440FB1684221
:10D2B000F8BD2846F8BD00002DE9F0410E460746AE
:10D2C00005F022FA6422B0FBF2F3154C338002FB26
:10D2D000130254433D460137287805F03FFA0028F1
:10D2E000F8D12B782E2B0FD10D4F6878A84605F07A
:10D2F00035FA48B10A23B7FBF3F798F80130303B11
:10D30000013507FB0344F0E704EB840403230134F5
:10D31000B4FBF3F4002374603372BDE8F08100BF06
:10D3200080969800034610B553F81C2F42605A6847
:10D3300082601B7A03730346044653F8282F026168
:10D340005A6842611B7A037601F0DCF901236063BD
:10D350006370237010BD0000002370B54370064653
:10D36000808804F063FB0446B0680D4604F04EFB71
:10D370000BA3D3E9002304F0E9FC0B46024629463F
:10D38000204604F007FA337B1BB1024601F100434B
:10D3900001E002460B4643EC102B70BDAFF300805A
:10D3A0000000000065CDCD41002370B543700646F6
:10D3B000008A04F03BFB044670690D4604F026FB2E
:10D3C0000BA3D3E9002304F0C1FC0B460246294617
:10D3D000204604F0DFF9337E1BB1024601F1004321
:10D3E00001E002460B4643EC102B70BDAFF300800A
:10D3F0000000000065CDCD4110B583684360044650
:10D4000001F080F90123E0606370237010BD10B556
:10D4100083684360044601F075F90123E06063709E
:10D42000237010BD10B504460846FFF716FFA06034
:10D4300010BD10B50446084605F066F9A06010BDA1
:10D4400010B5C3688360044601F05CF90123606095
:10D450006370237010BD10B504460846FFF7FDFE4B
:10D46000E06010BD10B5C3688360044601F04AF95E
:10D47000012360606370237010BD10B50446084638
:10D4800005F042F9E06010BD10B5044621461030A9
:10D4900005F0EBFA01F036F90123206284F825301B
:10D4A00084F8243010BD102205F006BB70B590F84A
:10D4B000A9600446002E67D090F8AA10FFF7BDFEC1
:10D4C00094F8AB1005462046FFF7B7FE94F8A83055
:10D4D00000EB0510C5B2AB424FD1D4F8D4300133C4
:10D4E000C4F8D43094F8BC3023B1D4F8CC30013334
:10D4F000C4F8CC3094F8B930B3B1012B2AD104F17F
:10D500003800FFF779FF04F14800FFF780FF94F837
:10D51000BC30FBB12046FFF705FF04F15800FFF7D0
:10D520008FFF04F1680013E004F14800FFF76FFF7C
:10D5300094F8BC3033B12046FFF7F4FE04F17800D4
:10D54000FFF77EFF04F18800FFF78CFF04F19800DD
:10D55000FFF776FFD4F8C450002D00F0D680D4F841
:10D56000C430A86A996A05F076FA002840F0CD80A8
:10D570002846FFF789FF2D6BEEE7D4F8D030013352
:10D58000C4F8D0300026C0E090F8BA2072B900F19B
:10D59000AA0528465E4905F05EFA00287DD0284697
:10D5A0005C4905F058FA002877D087E090F8B91068
:10D5B000022960D090F8AA30002B5CD042EA4112D8
:10D5C000013A282A57D8DFE802F01520242B3142EF
:10D5D000494F515656565656565656565656565604
:10D5E00056565656565656565656151B20242B310F
:10D5F000383A3C00483004F1AA01FFF713FF3AE043
:10D60000B3F141004342434125E0AA3004F11C013B
:10D6100009E0B3F153014B424B4180F824302AE03A
:10D62000AA3004F12801FFF747FE24E0B3F15702C6
:10D630005342534180F830301DE0583017E06830D5
:10D6400015E0383004F1AA01FFF7F3FE13E0302BA8
:10D6500094BF0023012384F8BC300CE0883004F12F
:10D66000AA01FFF70AFF06E0983000E0783004F1E5
:10D67000AA01FFF7F0FED4F8C450002D45D0D4F82D
:10D68000C430A86A996A05F0E6F900283DD1EB6A32
:10D6900094F8BA20934230DD37E0012384F8B930A2
:10D6A000D4F8C030C4F8C430D4F8C430A3B1986AF8
:10D6B000294605F0D0F900280EDA1AE02846164966
:10D6C00005F0C9F920B12846144905F0C4F908B994
:10D6D0000023E3E70223E1E7D4F8C430ABB1986A52
:10D6E000294605F0B8F900280FDD0023C4F8C4303E
:10D6F0000BE0D4F8C4301B6BD4E704D1284604F106
:10D70000AA01FFF7D0FE2D6BB7E7304670BD00BF12
:10D71000F65F0200FC5F0200086002000260020087
:10D7200038B5D0F8C830242903F1010304460D466A
:10D73000C0F8C8302AD090F8BB3004D80A290CD0E1
:10D740000D2932D109E02A2907D02C292DD190F8B2
:10D75000A82082F02C0280F8A8200E2B4FF00000A9
:10D7600005D8234483F8AA002046FFF79FFE94F8CB
:10D77000BA30013384F8BA30002384F8BB30B5F1F5
:10D780002A035D425D4184F8A95038BD0020022380
:10D7900084F8BB0084F8BA0084F8A80084F8B93093
:10D7A00084F8A90084F8BC0038BD0D2B05D85A1C9C
:10D7B000234484F8BB2083F8AA5094F8A90028B920
:10D7C00094F8A8305D4084F8A85038BD002038BDDA
:10D7D0000368D3F8542522F00402C3F85425D3F883
:10D7E000542522F00202C3F8542570470368D3F889
:10D7F000002522F00102C3F800257047002343747E
:10D8000062B670470368D3F8542511B942F001029B
:10D8100001E022F00102C3F85425C17170470000F5
:10D8200010B504460121807901F026F960790121C3
:10D8300001F022F92079002101F01EF9A079124AA5
:10D840002368142101FB00204068C3F808056079B3
:10D8500001FB00204068C3F80C05207901FB002281
:10D8600020465268C3F810254FF08042C3F82425A3
:10D87000FFF7AEFF20460121FFF7C4FF2268012316
:10D88000E371C2F8003510BD5060020002290BD0D0
:10D89000032915D0012901D0FFF79ABF0368D3F8F7
:10D8A000542522F0040210E00368D3F8542542F016
:10D8B0000402C3F85425D3F8542522F002020AE0EA
:10D8C0000368D3F8542542F00402C3F85425D3F872
:10D8D000542542F00402C3F85425704773B502ABD7
:10D8E00003E906000446009D9DF80460EFF31083F1
:10D8F00033B9EFF31383D3F1010338BF002300E002
:10D900000023237472B62046FFF770FFA07901212F
:10D9100001F0B2F86079012101F0AEF82079002120
:10D9200001F0AAF8A179264A2368142000FB0121FE
:10D930004968C3F80815617900FB01214968C3F8FB
:10D940000C15217900FB01225268C3F810251D4AED
:10D95000954202D84FF000721EE01B4A954202D851
:10D960004FF0806218E0194A954202D84FF00062E9
:10D9700012E0174A954202D84FF080520CE0154A47
:10D98000954202D84FF0005206E0134A954294BFE8
:10D990004FF080424FF00042C3F8242520469DF806
:10D9A0000510FFF773FF20463146FFF72BFF226873
:10D9B000E6710123C2F80035637402B070BD00BF88
:10D9C00050600200EFC60200D7B80500AF710B002F
:10D9D0005FE31600BFC62D007F8D5B000368002249
:10D9E000C3F80821C3F81C15D3F80821002AFBD07E
:10D9F000D3F81805C0B27047044B054A1A601822C4
:10DA00001A711A229A711B225A71704760420020C3
:10DA10000030024013B502AB026803F8011D5468E0
:10DA200019460122A04702B010BD70474FF47A7327
:10DA300010B583600D4B03600D4B0361012303752B
:10DA40000C4B83610A23C361092300210362022373
:10DA500004464160417543628162C1620163416372
:10DA6000816300F054FB204610BD00BF3860020007
:10DA700000127A0060420020C16102624362704776
:10DA800070B504460E46C0690021154601F054F8F1
:10DA900004F1100393E80600A069FFF71FFF314669
:10DAA000A069FFF79BFF2946A069FFF797FF05468E
:10DAB000A069FFF7A3FEE069012101F03DF82846C7
:10DAC00070BD01F07F010022FFF7DABF10B513210E
:10DAD0000446FFF7F6FFE36AC01A10BD036810B5ED
:10DAE0009B680446984738B1E36A0133E3622046F5
:10DAF0000021FFF7E6FF10BD4FF0FF3010BD38B535
:10DB000004460D4629B1836B1BB1C0214022FFF7AB
:10DB1000B7FF204681218322FFF7B2FF6DB920466F
:10DB20001221FFF7CEFF030702D400F009FEF6E74B
:10DB3000204692210822FFF7A3FF012038BD10B52F
:10DB400001210446FFF7BDFF00F0030003280FD0BA
:10DB500020461221FFF7B5FF00F0080303F0FF0095
:10DB60003BB1204692210822FFF78AFF002010BD1A
:10DB7000012010BD2DE9F0418846222116460746B6
:10DB8000FFF79FFF8319FF2B054688BFC0F1FF06F3
:10DB90000024B44207D018F8042038468021FFF74B
:10DBA0006FFF0134F5E72A193846A221D2B2FFF7F8
:10DBB00067FF2046BDE8F081036870B59B680446A6
:10DBC000984780B120460D21FFF77BFF00210646D4
:10DBD0002046FFF776FF8D21054632462046FFF7A7
:10DBE0004FFF284670BD4FF0FF3070BD81210A46BF
:10DBF000FFF746BF81218022FFF742BF70B506467E
:10DC0000CB170C46B162D90441EA54310023E00439
:10DC10000D4A04F0A3FA020C42EA014204460D4602
:10DC200030468621D2B2FFF72BFF220A42EA056274
:10DC300030468721D2B2FFF723FF3046E2B2882177
:10DC4000BDE87040FFF71CBF0048E801782902D802
:10DC50002D39052303E0F02905D81E310A2391FB55
:10DC6000F3F1C9B200E01B2101F01F0242F02002D3
:10DC70008B21FFF705BF38B505460C4642B90E2982
:10DC8000B4BF0A460E2222EAE27242F070021BE0A2
:10DC900011290ADDCD21142CA8BF14248722FFF7F7
:10DCA000EFFE033C28468C2108E0CD218422FFF7BB
:10DCB000E7FE022CB8BF022428466421023CFFF78D
:10DCC000C5FF64F07F0228468921D2B2BDE8384002
:10DCD000FFF7D6BE38B504460D46C069012100F0F5
:10DCE000CBFEE069012100F027FF206A431C10D021
:10DCF000012100F0C1FE0021206A00F01DFF0A2072
:10DD000000F00EFD206A012100F016FF0A2000F04D
:10DD100007FDA069FFF784FD20464221FFF7D1FEF1
:10DD200012282AD12046FFF765FF20462946FFF733
:10DD300065FF20468E210022FFF7A2FE002220462A
:10DD40008F21FFF79DFE20460C21FFF7BAFE40F021
:10DD500003028C212046D2B2FFF792FE2046A62174
:10DD60000422FFF78DFE204611210122FFF783FFD9
:10DD70002046FFF73BFF012038BD002038BD10B51D
:10DD800000231D2103630446FFF79BFE9D2100F045
:10DD9000FE022046BDE81040FFF772BE012310B519
:10DDA0001D2103630446FFF78CFE40F001029D2114
:10DDB0002046D2B2BDE81040FFF762BE38B5044637
:10DDC0000D46FFF7BCFEA8B92046FFF70FFF20461F
:10DDD00015B1FFF7E3FF01E0FFF7D1FF20468D21EA
:10DDE0000022FFF74DFE2046A2210022FFF748FE49
:10DDF000012038BD002038BD0148FFF717BE00BF25
:10DE00007442002002482021212200F0E1B900BF25
:10DE1000B0420020F8B506460C468F180025BC42DB
:10DE200007D0336814F8011B1B6830469847054437
:10DE3000F5E72846F8BD70B505460C4649B10368BC
:10DE400008465E6804F019FE214602462846B0479F
:10DE500070BD084670BD10B50B460268096854686D
:10DE60009A68A04710BD08B5FFF7E5FF08BD08B5E3
:10DE700003681B68984708BD08B50249FFF7DBFF38
:10DE800008BD00BF5E67020038B50446FFF7E3FF38
:10DE900005462046FFF7F0FF284438BD38B5044654
:10DEA000FFF7C9FF05462046FFF7E6FF284438BDC7
:10DEB00030B58BB000238DF82430012A98BF0A2298
:10DEC0000DF12304B1FBF2F303FB1211CDB2092DC6
:10DED00094BF30353735EDB2214604F801590BB106
:10DEE0001946EFE7FFF7A7FF0BB030BDF8B50646C0
:10DEF0000D46144622B90368C9B21B689847F8BD9D
:10DF00000A2A0CD100290BDA2D21FFF7B0FF694254
:10DF1000074622463046FFF7CBFF3844F8BDD2B261
:10DF2000BDE8F840FFF7C4BFFFF7E0BF38B50446CF
:10DF3000FFF7DCFF05462046FFF79EFF284438BD6B
:10DF400010B522B90268C9B21268904710BDD2B2AA
:10DF5000BDE81040FFF7ACBFFFF7F2BF38B504468D
:10DF6000FFF7EEFF05462046FFF786FF284438BD41
:10DF700038B50446FFF7E4FF05462046FFF77CFF6F
:10DF8000284438BD2DE9F843064655EC104B0F46A2
:10DF900003F0D0FB10B93046434907E045EC104B85
:10DFA00003F0C8FB012805D140493046FFF743FF85
:10DFB000BDE8F883204629464FF060423C4B04F010
:10DFC0002BF810B130463B49F0E7204629464FF088
:10DFD0006042394B04F002F80028F3D1204629466C
:10DFE0000022002303F0FAFF40B130462D21FFF755
:10DFF0003EFF05F1004380461D4600E080462F4B62
:10E000004FF0000900225FFA89F1B9420AD21046A6
:10E01000194600222A4B03F099FE09F10109024634
:10E020000B46F0E72046294603F0B4FB0D460446B4
:10E0300004F024F8814603F0E9FC02460B46204632
:10E04000294603F0A5FB0A2204460D463046494600
:10E05000FFF72EFF804427B130461A49FFF7EBFE49
:10E060008044F7B1164B00222046294603F044FDB8
:10E070000D46044603F0DAFF81460A22494630463F
:10E08000FFF734FF8044484603F0D0FC02460B46BD
:10E090002046294603F07CFB013F04460D46FFB2B3
:10E0A000DFE74046BDE8F883D4630200D86302008E
:10E0B000FFFFEF41DC630200FFFFEFC10000E03F24
:10E0C00000002440585A0200C9B2FFF75BBF38B5C0
:10E0D000C9B20446FFF756FF05462046FFF7CCFEBF
:10E0E000284438BD10B5044600F00CFBE0602368FE
:10E0F0002046DB689847002808DA00F003FBE36855
:10E10000A268C01A9042F2D34FF0FF3010BD816078
:10E110007047000070B50D4609490446164600F0E8
:10E12000D7F92846FFF7DEFF01460029204605DB28
:10E13000B14203D0C9B200F026FAF2E770BD00BFC9
:10E140006067020001207047064B1970064B0022E1
:10E150001A60064A012111601A68002AFCD00120C9
:10E16000704700BF0C4300202021004008200040E1
:10E170000C4BD3F8002222F02002C3F800220A4AF6
:10E18000012111601022C3F808230022C3F80025E2
:10E190004FF0FF32C3F80C251030C3F8142500F0FF
:10E1A00001BF00BF0020004004200040024B0122BC
:10E1B0001A60103000F0F6BE08200040103000F069
:10E1C00003BF103000F006BF103000F0EFBE0000BB
:10E1D00070B5002343604FF47A7304468360064BA6
:10E1E00040F8103B0D46164600F0C6FE84F8585025
:10E1F00084F85960204670BDE8630200034B00229A
:10E200001A60034B1030197800F0C1BE1021004095
:10E210000D430020B1F5E16F37D3B1F5616F37D30E
:10E22000B1F5E15F37D342F6DF63994235D944F265
:10E230009F13994233D945F6BF53994231D948F2D9
:10E240003F3399422FD94BF67F3399422DD903F5AD
:10E25000964399422CD903F5E14399422BD903F512
:10E260009633994229D91B4B994229D903F5E133B9
:10E27000994228D9184B994228D9184881428CBF15
:10E280004FF080504FF0706070474FF49E20704701
:10E290004FF41D20704712487047124870471248CB
:10E2A000704712487047124870474FF41D0070477E
:10E2B0004FF46B0070470F4870474FF0EB7070479A
:10E2C0004FF06C7070474FF0806070474FF0E8601F
:10E2D000704700BF47AA0300FF8B0A001FA90E006A
:10E2E00000B013000050270000F03A0000A04E00DC
:10E2F00000C0750000903A0101F00F0101290CBF28
:10E300000E200020704700002DE9F0412B4C2C4BD3
:10E31000C4F8443501262B4BC4F848650546C4F8BB
:10E320003435C4F838650F4690F8580000219046FF
:10E3300000F0A2FB95F85900314600F09DFB95F8DE
:10E340005900314600F0F8FB39462846FFF762FFD6
:10E350004146C4F824052846FFF7CEFFC4F86C05F3
:10E3600095F8591095F85800174B142202FB01310B
:10E3700002FB003349685B68C4F80C15C4F8143517
:10E380000823C4F800351023C4F804330F4BC0220F
:10E3900083F802230422C3F880211A600C4B002268
:10E3A0001A60D4F8003243F02003C4F8003226602B
:10E3B000084B1B68002BFBD0BDE8F081002000401B
:10E3C0000C4300200D4300205060020000E100E0FB
:10E3D000102100404C2100401322FFF795BF0000A0
:10E3E0000148FFF70BBF00BFB042002037B5002344
:10E3F000144A02EB0311D8B2098901F1804101F5F9
:10E40000C0410968012903D00133082BF0D1184617
:10E4100002EB0012002113890B4C03F1804303F53A
:10E42000C04302F1080519601B680193019BD36882
:10E43000C4F80833536898476B68C4F8043303B0D2
:10E4400030BD00BF104300200060004010B50446FE
:10E45000006804F09FF9204610BD10B5044600681E
:10E4600008B104F097F900232360A360636010BD36
:10E4700038B504460D460068013104F063FA10B166
:10E4800084E82100012038BD036810B5044613B1AB
:10E4900043688B4207D22046FFF7EAFF20B1A3680A
:10E4A0000BB922681370012010BD70B50E461146DD
:10E4B00004461546FFF7E8FF18B92046FFF7CDFFE1
:10E4C00004E0A5602068314604F0CFFA204670BD14
:10E4D00038B5002304460360436083600D4639B1BC
:10E4E000084604F0CAFA294602462046FFF7DDFF37
:10E4F000204638BD884210B50B46044607D009684F
:10E5000019B19A68FFF7D1FF01E0FFF7A6FF204697
:10E5100010BD38B505460C4641B1084604F0ADFAC9
:10E52000214602462846FFF7C0FF01E0FFF795FFAE
:10E53000284638BD10B500238AB004460360436006
:10E540008360084601A900F033F9204601A9FFF7CE
:10E55000E0FF20460AB010BD70B5044685680E463F
:10E5600009B9002070BD62B115442946FFF78CFF40
:10E570000028F6D02068A3683146184404F075FAE4
:10E58000A560012070BD07B500238DF8041001229D
:10E5900001A98DF80530FFF7DFFF03B05DF804FB3C
:10E5A0000B4610B509689A680446FFF7D5FF10B905
:10E5B0002046FFF752FF204610BD38B504460D46F1
:10E5C00041B1084604F059FA294602462046FFF7B1
:10E5D000C3FF10B92046FFF740FF204638BD8842F0
:10E5E000F8B501D10120F8BD83688A68934201D053
:10E5F0000020F8BD002BF5D006680D680024305DC2
:10E600000028EFD004F0A2FC0746285D04F09EFC31
:10E61000874204F10104F2D0EAE710B58B68846800
:10E62000E41AA2420CD8006868B1096851B11044DC
:10E630001A4604F02AFAD0F1010038BF002010BDBC
:10E64000002010BD084610BD82688B689A4202D334
:10E650000022FFF7E2BF0020704700009A422DE938
:10E66000F04107460D4614461E4601D9344616466B
:10E6700038460C49FFF72CFFAB689C420FD89E42EE
:10E6800028BF1E462B68002213F806809A55296879
:10E6900038462144FFF73DFF2B6803F806803846D3
:10E6A000BDE8F0816067020070B50668044616B3E5
:10E6B000836803B335460136287804F059F80028FA
:10E6C000F8D1A6682368013E1E44307804F050F863
:10E6D00018B1AE4201D3013EF7E720680136721B44
:10E6E0008542A26002D9294604F06BF82268A3682B
:10E6F0000021D15470BD70BD006808B104F004B8A9
:10E7000070470000014B1868704700BF904300201D
:10E71000024B1A6801321A60704700BF9043002014
:10E7200070B5044648B1054B1D681E4600F008F858
:10E730003268631E521B9A42F8D970BD9043002084
:10E740007047F0B58BB059B3931E222B2AD80A2AF2
:10E750002AD1002828DA4042012501AB1E4670B1BB
:10E76000B0FBF2F702FB1704092C3846D8BF30344F
:10E7700003F10107C8BF57341C703B46EFE7B342B3
:10E78000EED01DB12D204A1C087000E00A46B342AD
:10E7900004D913F8010D02F8010BF8E700231370F8
:10E7A000084603E0002001E00025D6E70BB0F0BDED
:10E7B000FFF7C7BF08B500F049F80020FFF7B0FF2A
:10E7C0000A4800F02FFC0A4802F0E4FDFEF7DEFCE8
:10E7D00000F0C4FB08B100F031FBFEF7D9FC054B9B
:10E7E000002BFAD0AFF30080F7E700BFD043002042
:10E7F00025ED0100000000000B490C4A0C4B9B1A50
:10E8000003DD043BC858D050FBDC0949094A00200D
:10E81000521A02DD043A8850FCDC02F013FE03F0C9
:10E8200077FFFFF7C7FF0000906B02000040002059
:10E83000304100200C4A0020FEE7FEE7FEE7FEE73D
:10E84000FEE7FEE7FEE7FEE7FEE7FEE70A4B1A6893
:10E850004FF47A73B2FBF3F2013AB2F1807F0AD23D
:10E86000064B5A60064AE02182F8231000229A6083
:10E8700007221A607047FEE76840002010E000E0C1
:10E8800000ED00E0052830B501D80E3003E00D287A
:10E8900001D8002030BD1F491F4B0C681F49096873
:10E8A000090341EA042141F08171012241F0100184
:10E8B000C3F80025C3F818151949142505FB0010E5
:10E8C000002490F91010C3F81445C3F81015042162
:10E8D000C3F8F4151349C3F83026C3F82C16C3F84F
:10E8E00000411A60D3F800010B4A0028FAD0002337
:10E8F000C2F8043101235360074BD3F80421002AE6
:10E90000FAD0B1F9000000229042C3F80025C0DB24
:10E9100030BD00BF5440002000700040584000202F
:10E920005060020094430020114A4FF0402330B55C
:10E930001360104AD2F8A811D2F894214FF0A040E9
:10E9400001F5E075002440F8254002F5E07540F837
:10E950002540C3F80815C3F80C254FF0CC72C3F856
:10E9600024250622C3F80025034B01221A7030BD6E
:10E97000F0490020506002005C40002010B5234B9D
:10E980002349244C097800221A70234B1B68C3F8D2
:10E990004445C3F8481521490978C3F8881510B1D2
:10E9A0004FF4007101E04FF48071C3F80012C3F816
:10E9B0000421C3F82421C3F84821C3F860210122AF
:10E9C0009A60C8B1D3F8042172B9D3F82421002A7F
:10E9D000F8D001225A61D3F8C424C3F8C424022A0F
:10E9E0000CBF0220032010BD0D4B0020187010BD7D
:10E9F000D3F82421002AEED1D3F84821002AF7D0F9
:10EA0000074B01221A70002010BD00BFEC49002006
:10EA10005D400020F5490020F0490020F449002025
:10EA2000964300200120FFF7A9BF00000E4B197884
:10EA300029B10E4B1B789BB10D4B187012E00D4B9A
:10EA40000B4A1B681070C3F85011C3F8442501220B
:10EA5000C3F848255A63D3F85021002AFBD001E0BF
:10EA600018467047012070475C400020EC490020A8
:10EA7000F5490020F8490020222810B50ED10329BD
:10EA800021D10F2001F0F4FCFFF74EFF274B482265
:10EA90001A70274B01221A70F8200EE02B2812D191
:10EAA00089B90F2001F0E4FCFFF73EFF1F4B48221D
:10EAB0001A701F4B01221A70EC20FFF7B7FFBDE858
:10EAC0001040FFF7AFBF1B4B142202FB003494F938
:10EAD0000840013428D0042926D8DFE801F0031CBF
:10EAE0000A25110002FB00300021426802F5E072A5
:10EAF0000CE002FB00300C21426802F5E07205E0F8
:10EB000002FB00300421426802F5E0724FF0A0439E
:10EB100043F8221010BD02FB0030012243689A40E6
:10EB20004FF0A043C3F8182510BD00BFF4490020E2
:10EB3000EC4900205060020070B5A0F126050646A1
:10EB40000C46042D00F28880DFE805F0031D3751E4
:10EB50006A000F2001F08CFC012C08D1FFF7E4FEC5
:10EB6000494B48221A70494BE2201C7070E0002C7F
:10EB700072D1FFF7D9FE444B48221A70434B012251
:10EB80001A70E32064E00F2001F072FC012C08D120
:10EB9000FFF7CAFE3C4B48221A703C4BE4201C7025
:10EBA00056E0002C58D1FFF7BFFE374B48221A70B1
:10EBB000364B01221A70E5204AE00F2001F058FC84
:10EBC000012C08D1FFF7B0FE2F4B48221A702F4BB3
:10EBD000E6201C703CE0002C3ED1FFF7A5FE2A4B3E
:10EBE00048221A70294B01221A70E72030E00F20CA
:10EBF00001F03EFC012C08D1FFF796FE224B482283
:10EC00001A70224BE8201C7022E02CBBFFF78CFE10
:10EC10001D4B48221A701D4B01221A70E92017E083
:10EC20000F2001F025FC012C08D1FFF77DFE164BCB
:10EC300048221A70154BEA201C7009E064B9FFF7EE
:10EC400073FE114B48221A70104B01221A70EB20F0
:10EC5000FFF7ECFEFFF7E6FE042D13D90C4B142250
:10EC600002FB063696F9083001330BD07268012199
:10EC70004FF0A04301FA02F214B9C3F80C2570BD9D
:10EC8000C3F8082570BD00BFF4490020EC490020FE
:10EC90005060020072DF704773DF704774DF7047A7
:10ECA00076DF70477ADF70477CDF7047A7DF7047F9
:10ECB00030B50B78152B85B0054615D104230C4CC7
:10ECC00002930DEB0301039400F0C2FF60B92368C7
:10ECD000DB0706D5074B0C2118884FF6FF72FFF7AC
:10ECE000E5FF284601F00AF8002005B030BD00BF5E
:10ECF000984300206040002008B5094B18884FF663
:10ED0000FF73984203D01321FFF7CAFF01E0FFF71A
:10ED1000C5FF4FF4FA70BDE8084001F0A9BB00BF81
:10ED20006040002010B5044686B0808800F00CFCDE
:10ED30001B4B1B7863B302282AD0A37D022B27D05C
:10ED4000204601F029F91748214600F031FB2388BD
:10ED5000102B1AD0112B1BD1134B4FF6FF721A80B8
:10ED600068460021182203F035FD0023A0226846E2
:10ED70008DF8003001938DF808300393ADF8102022
:10ED8000ADF81230FFF788FF02E0074BA2881A8027
:10ED9000064B13B12046AFF3008006B010BD00BF94
:10EDA0005E400020A04300206040002000000000E2
:10EDB00030B585B004AD002405F8104D01F06EFFAC
:10EDC000684600F035FE21460DF10900052203F0EA
:10EDD00001FD144A9DF809301278134862F30003CC
:10EDE000124A127862F34103114A127862F38203E5
:10EDF000104A127803F0F70362F3061364F3C713A3
:10EE00008DF8093007238DF80A3010238DF80B3068
:10EE1000094B019301A901238DF8083000F074FE1D
:10EE200005B030BD624000209C4300209D4300207F
:10EE30009E4300205F400020B1EC010070B5414EC0
:10EE40008CB0FFF7B5FF06B3AFF30080E8B10C223A
:10EE5000002101A803F0BEFC3B4B02930023039367
:10EE600001A901233948ADF8043000F023F93848EE
:10EE700002F0C2F9374B187802F0C4F9002E4AD0DC
:10EE8000AFF30080002846D059E09DF800303248AA
:10EE9000012262F303030CAC62F3071304F8303D64
:10EEA00003F0EBFD2C4982B26846FFF7FDFE00211E
:10EEB000082201A803F08EFC4FF4A073ADF80430D3
:10EEC0004FF402730024ADF8063001A84FF4C87364
:10EED000ADF80A30ADF80840FFF7E4FE21461F22E6
:10EEE00004A803F077FC1C4803F0C7FDC5B26B1CF7
:10EEF0008DF810302A4609230DF1120016498DF8BD
:10EF0000113003F05EFCA91C04A8C9B222462346B6
:10EF1000FFF7C0FE9BE7182204A8002103F05AFC6B
:10EF20000023A02204A88DF8103005938DF8183026
:10EF30000793ADF82020ADF82230FFF7ADFE0CB0FE
:10EF400070BD00BF0000000071100200A04300204F
:10EF5000F9EC01009C43002010640200014B18787A
:10EF6000704700BF5E40002008B5024B0BB1AFF305
:10EF7000008008BD0000000010B5002104464022BA
:10EF800003F028FC002323646364204610BD026C58
:10EF900010B5531C446C03F03F03A3421CBF8154C3
:10EFA000036410BD0023036443647047436C026C28
:10EFB000934206D0C25C013303F03F034364104622
:10EFC00070474FF0FF307047026C436CD01A48BF57
:10EFD00040307047436C026C934214BFC05C4FF0EA
:10EFE000FF30704710B5044601F020FE022C02D01D
:10EFF000032C02D010BD002200E00222014B1A7047
:10F0000010BD00BF4045002010B500211423044668
:10F010008162C1620163C0F82431282203F0DAFB67
:10F02000204610BD7FB5164B16491868009048223F
:10F030006846002302F072F908B102F0F3F80720E5
:10F04000012101AA02F0CCF908B102F0EBF8042387
:10F05000ADF804309DF810300B4843F001038DF8F3
:10F06000103002F0D5F908B102F0DCF801A802F086
:10F07000D9F9064802F098F907B05DF804FB00BF23
:10F0800021640200F8440020283D0020E5EF010043
:10F090000148FFF7B9BF00BFD0430020A0DF704791
:10F0A000A2DF7047A5DF7047A6DF7047A8DF704773
:10F0B00063DF70472DE9F047884694B00546002885
:10F0C00000F03681002900F033814B68002B00F0FE
:10F0D0002F814FF6FF730380994B04AA03F11006AA
:10F0E000174618685968144603C40833B3422246C9
:10F0F000F7D114AE41F2305338460DF10A0126F82B
:10F10000483DFFF7D5FF002840F01481012031462B
:10F110002A1DFFF7C3FF0446002840F00C819DF82C
:10F120000A30AB7121461C220DA803F053FB9DF859
:10F1300034300E9443F004038DF8343001AFAB79D2
:10F140008DF80E30214641F2325303223846109496
:10F15000119412941394ADF80C3003F03BFB9DF81E
:10F16000043064F3030364F307138DF804309DF84F
:10F170000530012666F3030366F307138DF80530A7
:10F180009DF8063066F3420364F3C30364F304138B
:10F19000DBB233432146142208A88DF806300DF166
:10F1A0000C0903F017FB4FF0140AA888ADF82840AB
:10F1B0000DA908AA05F10803ADF82A400C94CDF872
:10F1C00020900997ADF82CA0FFF76AFF04460028AD
:10F1D00040F0B18021461C220DA803F0FBFA9DF8F7
:10F1E00034300E9443F018038DF83430AB798DF839
:10F1F0000E30214641F231530322384610941194C7
:10F2000012941394ADF80C3003F0E4FA9DF8043036
:10F2100064F3030364F307138DF804309DF805309D
:10F2200066F3030366F307138DF805309DF8063087
:10F2300066F3420364F3C303DBB243F011032146D8
:10F24000524608A88DF8063003F0C4FA1723ADF82B
:10F250002C30A888ADF828400DA908AA05F11003A4
:10F26000ADF82A400C94CDF820900997FFF718FFCD
:10F27000044600285FD121461C220DA803F0AAFAFB
:10F280009DF834300E9443F002038DF83430AB799E
:10F290008DF80E30214641F2345303223846109443
:10F2A000119412941394ADF80C3003F093FA9DF876
:10F2B000043066F3030366F307138DF804309DF8FA
:10F2C000053064F3030364F307138DF805309DF8EC
:10F2D000063066F3420364F3C30364F30413DBB242
:10F2E00033432146524608A88DF8063003F072FADF
:10F2F0000223ADF82830ADF82C30A888ADF82A40AC
:10F300000DA908AA05F12003CDF820900997CDF8A2
:10F310003080FFF7C5FE044668B9D8F80430AB6208
:10F32000D8F8083003B1EB62064B01221A7002E0F4
:10F330000E2400E00446204614B0BDE8F08700BF6C
:10F34000256402004145002030B5044687B030B343
:10F3500000884FF6FF73984223D0134B1B7803B3FA
:10F36000124D102369700321ADF80610AA7002A88F
:10F370001A4600212B7003F02DFA238AADF80830CD
:10F3800001238DF80A300023ADF80C302088059554
:10F390000DF1060302A90493FFF786FE02E00E209A
:10F3A00000E0082007B030BD414500204245002064
:10F3B00070B50D4688B00446002800F0C3800029CF
:10F3C00000F0C080826A002A00F0BC800B88112BFC
:10F3D0001BD004D8102B40F0B5808B8817E0502B41
:10F3E00002D0512B15D0ADE0C9880389994240F075
:10F3F000A98008238DF81030123535F8023C8DF8BD
:10F400001830059504A990479CE04FF6FF732380C0
:10F4100098E08B79022B40F095800A89038A9A4202
:10F4200040F090808B7B043B022B40F28B809DF858
:10F43000163043F001038DF816300B8AADF8183002
:10F440004B8AADF81A30022601F11403082200217C
:10F4500001A88DF81060079303F0BCF900230DEBB1
:10F46000030202922088A18AADF8046001AAADF8D7
:10F470000630FFF717FE064618B1E36A2BB198472E
:10F4800003E09DF80030DB0708D440F2FD1320882C
:10F49000ADF8143004A9FFF709FE4FE0ADF81400F1
:10F4A00004A92088FFF702FE002847D1297D4B1EC2
:10F4B000072B3FD8DFE803F0040E1D1F21233C2556
:10F4C0006B8A8DF80460012B02D82046012109E0E7
:10F4D000012309E06A8A01239A428DF8043003D897
:10F4E00020460221062227E015358DF80C300295C2
:10F4F00019E0022315E0032313E0042311E00523A0
:10F500000FE06B8A022B02D82046082113E0AA7D67
:10F510006B7D43EA0223ADF808300BB9072300E006
:10F5200006238DF80430A36A204601A9984709E014
:10F530000923F6E720460322FFF706FF10B1E36A2E
:10F5400003B1984708B070BD38B5094C0546217D18
:10F55000201D2A4601F074FE40B1201DA17D2A46DF
:10F5600001F06EFE00280CBF0120022038BD00BF54
:10F570004C4500207FDF704786DF7047A7DF70476C
:10F58000A9DF7047AADF704700207047002070474E
:10F59000002070470020704700207047002070470F
:10F5A000002070472DE9F34704460F462B48A17809
:10F5B0006A4601F027FC00284DD1294B62780C21C6
:10F5C00001FB02319946897A11F0400F09D1022FCF
:10F5D00007D0012F07D12348A178234E03F09AF9D1
:10F5E00002E0224E00E0224EDFF89880A1781C2530
:10F5F00005FB01812A4600236846B047A178824670
:10F6000005FB01811B482A46002303F083F9BAF168
:10F61000000F12D1022F1ED063780C2202FB03933D
:10F6200068469A7A22F040029A726178124B2A4612
:10F6300005FB01312B46B04701E0022F0BD00F4AEA
:10F6400023780C2101FB032368469A7A0C4B214650
:10F6500053F82230984702B0BDE8F087DC4600201E
:10F66000A445002048640200550E0200CD0E0200A1
:10F6700089F50100846402008C460020CC460020FD
:10F6800038640200B04500202DE9F84343782B4947
:10F690002B4F24225A4380468818446874B10C20AA
:10F6A00000FB0370807A050607D5400605D402F1F9
:10F6B0000806A5B20E448C5802E0002425462646D2
:10F6C0004FF00C0909FB0373314618892A4623467B
:10F6D000FFF756FF0B280BD198F80120184B09FBB8
:10F6E0000233314618892A460123FFF749FF0124D6
:10F6F000002848F2410518BF2846012C1BD198F874
:10F7000001300C2101FB03774FF6FF723889FFF7B8
:10F7100035FF80B143F2020398420BD0082809D08C
:10F7200043F20403984205D011280CBF284600205C
:10F73000BDE8F8832846BDE8F88300BFA84600204E
:10F74000A4450020FFF7A0BF2DE9F04389B01A239C
:10F75000ADF80230244F4B784FF00C0808FB0373D0
:10F7600081460E46188901A90DF102020323FFF715
:10F7700009FF002834D170781C4DBDF802202424E4
:10F7800004FB0050083001A903F00CF8737868B945
:10F7900008FB0377BA7A02F0020202F0FF01FAB91D
:10F7A00004FB0350224603F015F819E06343E918FF
:10F7B0000F484A680F4F002A18BF07460322EA5035
:10F7C00003F10800BDF802204A60284401A902F0B4
:10F7D000F8FF7178484604FB015122463823B847A8
:10F7E000002009B0BDE8F083A4450020A846002011
:10F7F000CD0E0200550E0200FFF7A6BF70B50346FE
:10F80000094D487824240E4604FB00501946224630
:10F81000382301F097FB30B9737804FB0354636815
:10F82000013308BF606070BDA8460020FFF7E6BF47
:10F830002DE9F0471C46544B92B017461A681A9EA1
:10F84000824688469946002A00F09A80742E00F27B
:10F850009780FF2300258DF805308DF806308DF850
:10F8600007308DF804508DF81050099408964748D9
:10F87000A9B202AA01F0C6FA40B9504602A908226C
:10F8800002F090FF10B98DF8065002E00135072D07
:10F89000EDD19DF80630FF2B72D0B8F1030F06D1E1
:10F8A000742E0CBF202340238DF810304EE0384AD0
:10F8B000A21AC32A11D8374827B9012102689940F2
:10F8C00011425DD0012202FA03F3026822EA030228
:10F8D000202302608DF8103047E02F4AA21A1B2A1D
:10F8E00009D8002220238DF805200AAA8DF81030AF
:10F8F0000992089339E02948221A232A13D8302381
:10F900008DF8103000238DF8053001238DF8073075
:10F91000234B9B7A03F0020303F0FF012BBB24224D
:10F9200002F058FF21E040228DF810201D4A944239
:10F930000CD01D4A52F82320A24221D1184AD27A73
:10F940009A4212D100238DF805300EE09DF8103058
:10F9500043F003038DF8103007AB059301A8D9F8E5
:10F96000003004A93A4698470AE0B8F1020F9DF822
:10F97000103002D143F00103ECE743F00203E9E762
:10F9800012B0BDE8F08700BFCC460020DC46002066
:10F99000B0450020D84600208C460020A846002014
:10F9A000A44500207C6802008045002070B5114EFF
:10F9B0001C244443054630190021344406221130EA
:10F9C00002F008FF00211022204602F003FFFF236F
:10F9D0002374A3764FF6FF732383074B01211A6824
:10F9E000A94022EA01021A60044B002243F82520B4
:10F9F00070BD00BFB0450020D846002080450020E3
:10FA000037B50546A9B209486A4601F0FBF9044634
:10FA100040B96846742101F0E1FA044610B928465D
:10FA2000FFF7C4FF204603B030BD00BFDC46002016
:10FA30007FB50546002853D02B482C4B01220024CB
:10FA400082724FF6FF720281C272214607221C6049
:10FA50005C729C7202F0BEFE25482146242202F010
:10FA6000B9FE2046FFF7A2FF224BFF22E2540134E9
:10FA7000072CF6D104A8204A40F8102D74236846BC
:10FA80001E49ADF80430ADF8064001F051F948BB0D
:10FA90001B4E2C7801233370C4B91848A1B202AAB6
:10FAA00001F0B0F9054650B916481C2202FB0400CB
:10FAB00002A92B4601F046FA20B1357012E000236E
:10FAC00033700FE00134072CE7D10BE0BDF80630AE
:10FAD000BDF804100948594389B201F07FFA01E0EA
:10FAE00048F20E0004B070BDA4450020CC460020B2
:10FAF000A84600209C45002031F80100DC4600208B
:10FB0000A3450020B0450020184B1B7870B5064671
:10FB10001BB328B321B3086810B3154B1A6812BB86
:10FB20000D461C4644F8040B55F8050F586028791B
:10FB3000207109799972197A62F30001C9B241F012
:10FB4000020162F382011972D97941F0030162F373
:10FB50008201D9713270104670BD48F2080070BD44
:10FB600048F20E0070BD48F2040070BDA3450020AD
:10FB7000CC4600207FB52E4B1B7805460C46002B4B
:10FB800050D0002848D0002946D08B68002B43D0A5
:10FB90000378002B46D1274B1B68002B42D081787D
:10FBA00006293CD8244B1C2202FB01339B7EFF2BF1
:10FBB00035D04378214A0C2000FB03239B7A1B0796
:10FBC00030D56368032B30D91D4802AA01F01AF919
:10FBD00060BB01A802A90422602301F0B3F938B97F
:10FBE000184A194E019BB3F1FF3F08BF164600E0CB
:10FBF000144E02A8211D04226023B047B0B902A808
:10FC0000A1681022642301F061F978B9AA780F4B3A
:10FC1000A16843F8221009E048F20E0006E048F21D
:10FC2000100003E048F2080000E0072004B070BDB7
:10FC3000A3450020CC460020B0450020A44500206C
:10FC4000DC460020550E0200CD0E0200804500204B
:10FC50001FB5254A127803460C46002A3AD00028E0
:10FC600035D0002933D00278002A33D11F4A1268D8
:10FC7000002A2FD08278062A2FD81D491C2000FB8D
:10FC80000211897EFF2928D0A0681A4918B951F8B5
:10FC90002220A26001E041F822001748997802AAC8
:10FCA00001F0B0F8F0B901A802A90422602301F024
:10FCB00049F9A8B9019B013312D0A06802A910220A
:10FCC000642301F03FF968B9019B63600AE048F2E0
:10FCD0000E0007E048F2080004E048F2100001E0DE
:10FCE00048F2400004B010BDA3450020CC460020DF
:10FCF000B045002080450020DC4600201FB51C4B8D
:10FD00001B78044663B340B303784BBB194B1B68A5
:10FD100033B38178062926D8174B1C2202FB013306
:10FD20009B7EFF2B1FD0154802AA01F06BF8E0B9AB
:10FD3000602301A802A9042201F004F9019B013308
:10FD400013D002A80E490422602301F0BFF860B965
:10FD5000A2780C4B43F8220007E048F20E0004E0C2
:10FD600048F2080001E048F2100004B010BD00BFE6
:10FD7000A3450020CC460020B0450020DC460020F2
:10FD80007C68020080450020084B1B785BB139B1CC
:10FD900030B1007838B9064B1B6823B10870704742
:10FDA00048F20E00704748F208007047A345002053
:10FDB000CC4600201C4B1B7810B57BB358B351B315
:10FDC00004785CBB194B1B6843B38278FF2A0FD1C0
:10FDD0004278FF2A25D0164B0C2000FB02339A7A7A
:10FDE00092071ED51A680A609A888A809B790FE06C
:10FDF000104B1C2000FB02339A7E02F0020202F03C
:10FE0000FF0472B953F8100F08609A889B798A80B2
:10FE10008B71204610BD48F20E0010BD48F208005C
:10FE200010BD48F2050010BDA3450020CC460020BF
:10FE3000A4450020B04500202DE9F043264B1B7857
:10FE40008BB005460C46002B3DD0002838D0002949
:10FE500036D00378002B36D1204A1268002A32D0DF
:10FE60008278062A32D8DFF87C801C2707FB0282C2
:10FE7000927EFF2A2AD0CB608278DFF86C904B61AB
:10FE800007FB028203AE0A61C1F804908B600E602A
:10FE90001348A97801AA00F0B5FFC8B9304601A9F6
:10FEA0003A463B4601F04EF890B9E060AB786061AD
:10FEB00007FB03872761C4F80490A060266007E071
:10FEC00048F20E0004E048F2080001E048F2100099
:10FED0000BB0BDE8F08300BFA3450020CC46002056
:10FEE000DC460020B0450020744600207FB5044663
:10FEF00002AAA1781E4800F085FF61780346002819
:10FF000030D11C4E039A1C481C2505FB016300954B
:10FF1000019502F0FFFC60782A4605FB006002A90B
:10FF20002B4601F00FF8024618B11448617802F030
:10FF3000F1FC382261780092114A1248242303FB15
:10FF4000012202F0E7FC104B9A7A104B02A853F8FA
:10FF5000223021469847024640B161780C4802F0B1
:10FF6000D9FC03E00B48A27802F0D4FC04B070BDC9
:10FF7000DC4600208C460020C06402001C650200A4
:10FF8000A846002058650200CC4600205C680200AC
:10FF9000A1650200E06502002DE9F041B74A90B08A
:10FFA0001278FF2305460393002A00F02E82B44FF7
:10FFB0003A68002A00F0298206888DF811308DF801
:10FFC00012308DF81330031D06934FF000082C23D8
:10FFD000102EADF81C308DF81080AA4C22D0A27AD9
:10FFE0008388920708D54FF6FF72934200F0CE81C6
:10FFF00022899A4200F0CA81192E00F0EB8007D8BE
:020000040002F8
:10000000132E67D0142E3BD0112E40F0FE8119E044
:100010001E2E00F09C81522E00F08F811A2E40F08F
:10002000F48159E1984802F075FC4FF0A0434FF07D
:100030008052C3F81825C3F80825A37ADE0700F11B
:10004000AC81E2E19148297A02F064FCA27A02F0E4
:10005000FD031007A37206D519060DD504A80021CB
:10006000FFF7A0FA08E09DF81200FF2804D0FFF780
:100070009DFCFF238DF812301023A37212236AE136
:10008000834802F047FCE37AFF2B18D12A8A002329
:1000900080491C2000FB0311098B91420CD1A27AEC
:1000A000039342F00802DBB204A8E372A2728DF857
:1000B0001230FFF71BFF02E00133072BE8D1E37A90
:1000C0007549A888734AFF2B08BF00210023FFF75A
:1000D00053FA9AE1714802F01DFCA37A8DF814607E
:1000E00043F00403A372E37A664EFF2B5AD1002338
:1000F00068491C2202FB03128846907EFF2820D10B
:1001000020786049022802F118000AD0FD26867086
:1001100002F110060868106188888A79B080B2718F
:1001200001E0FE2282708DF80C305D48039A0021B8
:1001300002F0F0FB9DF80C308DF81230E3720026CF
:1001400009E00133072BD3D1564848F2430102F0AE
:10015000E1FB48F24306297A2B7BEA7A524801F008
:1001600001010091C2F3400203F00101C3F38003D7
:1001700002F0D0FBE37AA8881C2202FB03830D93D4
:10018000454B08930021494A0C9108AB0E910F9101
:1001900009910A910B91FFF7EDF90146002800F053
:1001A000DD8013E0424802F0B5FBB37A43F0400330
:1001B000B372002216238DF814308521A8881346C7
:1001C000FFF7D8F90146002800F0C780394802F04F
:1001D000A1FB1AE1297A384802F09CFB7B7AA27ACB
:1001E00023F0010302F0FB017B721420A1728DF851
:1001F0001400287A234B60B1520604D4D87AFFF752
:10020000FFFB2E7A00E00026297A0220FEF7ACFEE2
:10021000A4E06A7A560740F1A0809DF81220FF2AD8
:1002200000F09B8041F0080199726B7B980707D51D
:10023000184B1C2101FB0233997E21F001019976B4
:10024000E37A104DFF2B00F088800021144802F063
:1002500061FB2B780F4A022B9DF812304FF01C01E6
:1002600001FB03232AD09A7E28681861A979A888FF
:10027000988222F0020299759A7628E0A345002020
:10028000CC460020A44500202C6602003E660200F9
:100290005F660200B04500208C46002087660200A1
:1002A000B166020020680200D9660200D046002034
:1002B0004067020000670200616702005449498AF2
:1002C000198303F118029B7E23F00103937004A8A5
:1002D0000121FFF767F940E02A7A4E4802F00F014A
:1002E000120902F017FB2B7A112B14D1A37A4A4D75
:1002F000190710D549480021324602F06BFA16233F
:100300008DF81430AB7A43F06003AB727B7A43F024
:1003100002037B7221E000210120FEF725FEA37A73
:10032000BA7A63F07F03A37215238DF814303C4B27
:1003300004A853F8223098470FE03A4802F0EAFA4E
:10034000BA7A374B04A853F8223098475DE0364814
:1003500002F0E0FA13238DF8143000263B6804A85D
:1003600005A9324698479DF81430122B4DD1A37A37
:100370002948012B49D0012383724FF6FF73038173
:10038000C3720021072202F025FA3EE0E37A8DF8DD
:10039000123000238DF811302EE611238DF8143021
:1003A000AB8823812E460223A37256F8080F8DF8DE
:1003B0001180B379B288A371EB7DA280DA07206047
:1003C00006D55B08194AD35CFF2B11D003930FE0CD
:1003D0004546174B1C2000FB05303146072202F032
:1003E000E1F908B9039503E00135072DF1D1B4E730
:1003F000A27A9DF80C30E37242F0080204A8A272BF
:100400008DF81230FFF772FDA7E710B0BDE8F0815C
:100410008C46002091670200A4450020B0460020D1
:100420006C680200D3670200FD6702009C45002053
:10043000C045002010B579B10B7883B90A4A12681B
:100440006AB1FF228A70094A148984420AD14B702A
:10045000D27A8A70184610BD48F20E0010BD48F2DC
:10046000080010BD052010BDCC460020A44500208A
:1004700082B00190019B002B41D0019B013B019375
:1004800040F2E730013800BF00BF00BF00BF00BF2F
:1004900000BF00BF00BF00BF00BF00BF00BF00BF64
:1004A00000BF00BF00BF00BF00BF00BF00BF00BF54
:1004B00000BF00BF00BF00BF00BF00BF00BF00BF44
:1004C00000BF00BF00BF00BF00BF00BF00BF00BF34
:1004D00000BF00BF00BF00BF00BF00BF00BF00BF24
:1004E00000BF00BF00BF00BF00BF00BF00BF00BF14
:1004F00000BF00BF00BF00BF00BFC3D1BAE702B05A
:1005000070474FF010235A69531C4FF080531DBFA2
:10051000186980B2B2FBF0F05869704729DF704764
:1005200028DF704708B5034B1A78034B53F8223085
:10053000984708BD684900209468020037B5024614
:100540000846074C0B4650F8081F24680C254D43FD
:1005500019780094034C1B696459A04703B030BD5F
:100560007049002048490020104A1378142101FBEB
:1005700003234FF08052D88811691A690433013A75
:100580009B8802441A448BB2B2FBF3F2084B1B68FF
:10059000934207D308D1074B1868D0F1010038BF48
:1005A000002070470120704700207047E44600207B
:1005B0004049002044490020034B1A6822F00802F9
:1005C0001A60FFF7AFBF00BF64490020074A1368F5
:1005D000180709D4990744BF43F001031360044B83
:1005E00002221A70FFF79EBFFFF7E6BF64490020A2
:1005F00068490020054B1B681B0704D4044B0122EB
:100600001A70FFF78FBFFFF7D7BF00BF6449002004
:100610006849002008B5B0B1112805D10A4B1A6805
:1006200042F008021A6008BD084B1A78142101FB39
:1006300002310431FFF782FF054B04221A70BDE836
:10064000084000F09BB808BD64490020E446002043
:100650006949002008B5FFF761FFBDE80840FFF7D2
:10066000D9BF0000F8B5134B134E1A78142404FBBD
:1006700002344FF0805504342B696288A0889BB205
:100680009A42E3680ED929692F6989B2521A216901
:10069000184410441144C7F38D02FFF7DBFF2B69A8
:1006A0009BB205E0184421699208FFF7D3FF6388E5
:1006B0003360F8BDE44600207C49002038B50A4A82
:1006C0004FF0805415682369013D9BB25D43FFF7ED
:1006D00018FF2169431E89B25943044B28461A6802
:1006E000BDE83840FFF7B6BF4049002078490020F8
:1006F00070B5104A1378142101FB032304339A8840
:100700005C88DB684FF0805514441C442B699BB215
:10071000B4FBF3F603FB1646FFF7F3FE2969431E0D
:1007200089B201FB0361044B20461A68BDE87040A2
:10073000FFF790BFE44600204449002010B5FFF7C2
:10074000E0FE4FF0805301381C6919691A698BB2B9
:1007500005490968A4B260435943C2F38D02BDE85C
:100760001040FFF777BF00BF4049002008B5FFF7F2
:10077000D7FEBDE80840FFF74DBF0000294B1B78AE
:10078000F0B5032B4DD8DFE803F0020F1346264ADD
:1007900000231360254A1360254B5B78002B40D063
:1007A000BDE8F04000F0CCB8BDE8F040FFF75ABF1C
:1007B000204B1F481A6804781F4F22F001011425AE
:1007C0004FF08056196005FB04043069256980B23A
:1007D000B5FBF0F00434386036696488013D254487
:1007E000B4B2B5FBF4F5A8421CBF22F003021A60B4
:1007F000124A04BF41F0020119601168104A21B980
:100800001B689B0701D4022300E00023BDE8F040F1
:100810001370FFF787BE084BBDE8F0401868FFF77C
:10082000A5BFF0BD69490020744900207C49002023
:10083000E446002064490020404900207849002017
:10084000684900202DE9F041374A384E13781421C9
:1008500001FB0323364ADF681969B3F806C00C248C
:1008600004FB07244FF08058228960896468D8F817
:10087000105000FB02401C8900233360ABB2B1FB77
:10088000F3F50CEB040203FB15130A44294D3BB9A5
:10089000D8F810309BB29C4504D0824200D10CB1F4
:1008A000032F09D14FF080531B699BB2B1FBF3F1C9
:1008B000214B1960032331E04FF0805321441F691D
:1008C000BFB2B1FBF7F407FB14111C4C890821607F
:1008D0008242196921D089B2B2FBF1F401FB1421E3
:1008E000D9B11C69196992B280B2A4B289B2B0FBC5
:1008F000F4F4B2FBF1F18C4203D1821A9208326017
:100900000BE019691B699BB2B2FBF3F003FB1022E9
:1009100089B292B28B1A9B08336002232B70BDE818
:10092000F041FFF72BBF00BFE44600204449002000
:1009300048490020694900204049002078490020AA
:100940000A4A1378142101FB0323094AD9881B7929
:100950001160032B07D0042B05D0012B05D1054ACC
:100960001370FFF70BBFFFF76DBF7047E446002021
:100970007049002069490020F8B5114D6E781E2E8F
:100980001AD02C7834441D2C88BF1E3C142707FB3A
:1009900004540136207103C9626104F10C0282E83B
:1009A0000300E380BDF818302381064B6E701C787D
:1009B00024B9FFF7C5FF01E00420F8BD0020F8BD11
:1009C000E44600206949002038B5124C21781425EE
:1009D00005FB014104310020FFF7B0FD217805FB44
:1009E0000142002302251371D380D5601361536146
:1009F00013816278013A62704A1CD2B21E2A18BF73
:100A00002270054A08BF23701370BDE83840FFF715
:100A1000B5BE00BFE446002069490020074B1A78A4
:100A2000142101FB02331B79042B01D0FFF7CCBF4B
:100A3000034B01221A70FFF7A1BE00BFE44600205D
:100A4000694900201F48F8B5036813F0080121D157
:100A50001D4C2278142505FB0242D2F810C0D7881D
:100A600016894FF080521569184A1468B4B10CF118
:100A7000FF323A44ADB23244B2FBF5F2144D2D6868
:100A800095420BD143F00103124A0360124B1160EF
:100A900019700CE0BDE8F840FFF78EBDFFF764FD6C
:100AA00048B10C4B00221A6002220B4B1A70BDE8B1
:100AB000F840FFF737BD0CB10322F6E7BDE8F84078
:100AC000FFF7ACBF64490020E44600204449002001
:100AD000404900207849002068490020034B1B68EA
:100AE0001B0701D4FFF79ABFFFF766BD64490020DA
:100AF00038B5164D2C68230723D4154B1A680132DC
:100B00001A60144B1B680BB1042203E0FFF72CFDA5
:100B100030B10222104B1A70BDE83840FFF702BD19
:100B20000E4B1B684BB114F0010208BF44F00104E6
:100B3000094B0CBF2C600322EDE7BDE83840FFF7FE
:100B40006DBFBDE83840FFF737BD00BF64490020E6
:100B5000404900207849002068490020444900208D
:100B600008B51F4B1B78022B32D0032B1AD0012B58
:100B700034D11C4B1A68100723D41B4B1A7814214C
:100B800001FB02320432194B51881B68CB1A9BB20D
:100B900053801BB9BDE80840FFF716BFBDE8084009
:100BA000FFF760BD0F4B1A6811070AD4104B1A6883
:100BB00001321A60FFF7D8FC30B9BDE80840FFF7F2
:100BC0002DBF22F008021A60BDE80840FFF7D6BD2D
:100BD000084B1A78084B53F82230984708BD00BFDD
:100BE0006949002064490020E44600207C49002037
:100BF000404900206849002080680200014B1868C5
:100C0000FFF7B4BD4049002008B5FFF77AFC4FF06C
:100C1000805301381A691B6992B29BB25043B0FBF2
:100C2000F3F0BDE80840FFF7A1BD000010B5174C78
:100C3000237813F0FB0F28D0022822D0032800D0FD
:100C400010BD134A126812071BD412490A680132F8
:100C5000B2F57A7F0A6005D0022B0ED1BDE81040B4
:100C6000FFF760BC0C4B1A78142101FB02310D20F8
:100C70000431FFF763FC04232370BDE81040FFF745
:100C80007DBDBDE81040FFF76BBF10BD6949002076
:100C90006449002074490020E44600201B4A38B50E
:100CA00000231370537002F1140302F51B72002429
:100CB000022103F8104C23F80E4C1C6023F80C4C56
:100CC00003E9120014339342F1D1114B1C80FFF75A
:100CD00018FC4FF0805303381B690E4A9BB2434304
:100CE00013600D4B1C600D4B1C601C815C81DC6033
:100CF0009C82DC820A4B1C700A4B1C600A4B1C60F5
:100D00000A4B04221A60204638BD00BFE44600208A
:100D1000604900206C4900204049002048490020DB
:100D200069490020744900207C4900206449002062
:100D30002DE9F8432F4B1B685A0704460E464FD542
:100D4000002850D000294ED00368002B4BD04FF024
:100D500080588388D8F8102092B2934202D9072095
:100D6000BDE8F8830F2BFAD9C288002AF7D0224FAA
:100D70003D6803FB0259FFF7C4FBD8F81030013877
:100D80009BB243439945B846E9D8A2889307E6D178
:100D90001A490B88022B8C4628D086E828000C20A4
:100DA000174E27685843311801334D603750E0889B
:100DB0000A8148814FF080510E690C690969ACF8CD
:100DC0000030B6B200FB0262A4B2013A92FBF4F228
:100DD00089B201FB0255C8F800500020BDE8F88335
:100DE0000820BDE8F8830E20BDE8F8830420BDE8A4
:100DF000F88300BF644900206C490020604900204E
:100E000048490020114B1B685B0770B518D5C8B165
:100E1000C2B10368012B17D80C250D4E5D43741920
:100E200075598DB125894068668905FB01016068A7
:100E300005FB0605A94207D213605160002070BD72
:100E4000082070BD0E2070BD072070BD64490020D1
:100E500048490020F7B514461A4A12685207054659
:100E60000E4626D539B330B30268012A25D80C21A5
:100E700015484A4381188258FAB10A894F8949684E
:100E8000686802FB0711884217D2B4B1944214D8A3
:100E9000E118914211DCB70711D199070FD18207F0
:100EA0000DD100932946324623460120FFF764FD09
:100EB00006E0082004E00E2002E0072000E01020F9
:100EC00003B0F0BD6449002048490020F7B514463E
:100ED0001A4A1268520705460E4626D539B330B372
:100EE0000268012A25D80C2115484A4381188258E6
:100EF000FAB10A894F894968686802FB071188427C
:100F000017D2B4B1944214D8E118914211DCB7075A
:100F100011D199070FD182070DD10093294632468E
:100F200023460420FFF728FD06E0082004E00E20F9
:100F300002E0072000E0102003B0F0BD644900206B
:100F4000484900202DE9F3411546224A1268570707
:100F500006460C4634D5002934D0002832D0096822
:100F6000012931D80C201C4A414350185158904651
:100F700051B3028947894068616802FB07008142DA
:100F800022D20DB395421FD8E81890421CDCB0075E
:100F90001CD19A071AD111F0030717D119442A4618
:100FA000304601F00EFC236800950C225343204686
:100FB00058F8035002213A463346A847384606E01F
:100FC000082004E00E2002E0072000E0102002B01C
:100FD000BDE8F08164490020484900201C4A12689D
:100FE000520773B50B46044629D550B30268012A4F
:100FF0002BD80C201749424388188A582AB34568D1
:1010000002894089616802FB005081421DD28E072F
:1010100019D14D1BB5FBF2F602FB1655ADB9B3FB6A
:10102000F2F502FB153292B27AB973B119448142DA
:101030000BD8009221460320FFF79EFC06E0082013
:1010400004E00E2002E0102000E0072002B070BD96
:101050006449002048490020AADF704744DF7047F8
:1010600011DF704713DF704700DF704770470000E3
:1010700030B50A788DB0002A40F0A4800CAA04880C
:101080005549082322F82A3D20460123FFF7E4FFB3
:10109000524B1B689847B120FFF7E0FF08B100F002
:1010A000C1F8FFF7DDFF08B100F0BCF84FF01023E6
:1010B0005869FFF7D7FF08B100F0B4F800232046C5
:1010C00047490293FFF7B6F900284DD1444806A9D5
:1010D000FEF7B2FE00283AD10A99424A0B4653F86D
:1010E000100F10609888908098799071D01D51F8F9
:1010F000044B40F8044B9942F9D1069B3A481946F3
:1011000003F1100451F8045B40F8045BA142F9D1EB
:101110000978017053F8121F3448C2F82A10596830
:1011200041601B8903812A38FFF79EFF08B100F058
:1011300079F801230293042304930CA902AB0593CD
:10114000002341F8243D2648FEF714FD09E0244819
:101150002449FEF72FFE08B100F064F82148FFF79C
:1011600083FF08B100F05EF8214B4FF48002C3F812
:1011700080214FF0FF32C3F88020C3F884201D4A3D
:10118000116801F0FC011160D2F8F41C41F000710B
:10119000C2F8F41C19680023012202FA03F0084285
:1011A00007D003F01F005C0982402034104840F84B
:1011B00024200133262BEFD14FF01023586900F083
:1011C0009BFA06E001210322FEF7BEF808B100F009
:1011D00029F80DB030BD00BFB449002064400020A4
:1011E000BC4900208049002098490020AA490020DD
:1011F00000E100E010E000E0014B1860704700BF24
:101200006440002007B502AB054903F8010D1846FC
:10121000FEF7BAFD08B100F005F803B05DF804FB75
:10122000BC4900201FB50021039001AA44F201002F
:10123000ADF804100291AFF3008005B05DF804FB37
:1012400010B568B1002330F81340944204D141FA3C
:1012500003F303F0010010BD0133082BF3D100208C
:1012600010BD52DF704710DF704760DF704761DFED
:10127000704708B5AFF3008008BD0000224B1B7813
:10128000F7B5002B3DD0214B1C68D4F1010438BFC9
:10129000002400251F46002D31D101A8FFF7E1FFF2
:1012A00005280CD010B1FFF7BDFF09E0019800F050
:1012B00015FA174B1B681BB10198984700E00125F0
:1012C000DCB9144B02A91B8821F8043D124B1E689F
:1012D0003046FFF7CCFF0528044608D018B1FFF7C9
:1012E000A1FF002404E03B683046984700E0012459
:1012F000002DD2D0002CCED003E015B9CDE7002CC4
:10130000DFD003B0F0BD00BFC0490020CC490020B1
:10131000C8490020C2490020C449002010B5D9B1F5
:101320008C0719D1144C216014490A80144A1549BC
:101330001360FFF798FFC0B9134B144901221A70CC
:1013400091F816335B099A1E052A02D8043B012B3B
:1013500004D842F202030DE007230BE00C4A936825
:101360002BB1136843F480031360034602E04FF48B
:1013700080020A60184610BDC4490020C2490020FE
:10138000D049002073120200C049002000E100E0B3
:10139000FC49002018B1034B1860002070470E2054
:1013A000704700BFCC49002018B1034B18600020E3
:1013B00070470E20704700BFC849002008B5074B92
:1013C0001B682BB1984738B1BDE80840FFF72ABF2A
:1013D000BDE80840FFF752BF08BD00BFD04900205C
:1013E00070B5144605460E4610460021142201F041
:1013F000F1F9227B26720020012360F30002238092
:1014000020612273657205B1A372002070BD0000D7
:1014100082B0034B0193019B002002B0704700BFD4
:101420000040002007B5064B019302A9019B41F83B
:10143000083D6946FFF719FF03B05DF804FB00BFE4
:1014400000400020944B1B78062B0AD1934B1B685D
:101450001A0706D1924B1B6803F0F003302B00F003
:10146000AA808D4B1B78062B0FD18C4B1B681B075A
:101470000BD18B4B1B6803F0F002302A00F09F80E9
:1014800003F0E003402B00F09A80834B1B78062B7F
:101490000AD1824B1B68180706D1814B1B6803F0E9
:1014A000F003302B00F092807B4B1B78062B0FD182
:1014B0007A4B1B6819070BD1794B1B6803F0F002BC
:1014C000302A00F0898003F0E003402B00F0848094
:1014D000714B1B78062B09D1704B1B681A0705D17D
:1014E0006F4B1B6803F0F003302B7FD06A4B1B78E7
:1014F000062B0AD1694B1B6813F00F0305D1684A0C
:10150000126802F0F002302A74D0634B1B78062B6D
:1015100009D1624B1B681B0705D1614B1B6803F0A7
:10152000F003502B70D05F4BD3F8882042F4700248
:10153000C3F88820BFF34F8FBFF36F8F4FF0102396
:10154000D3F80022002A03DBD3F80432002B2EDA72
:10155000554B0122C3F80425D3F80024002AFBD000
:101560004FF010221521C2F80012D3F80024002AEF
:10157000FBD04FF010231522C3F804224A4BD3F8B6
:101580000024002AFAD00022C3F80425D3F800244E
:10159000002AFBD0BFF34F8F424A444BD16801F47D
:1015A000E0610B43D360BFF34F8F00BFFDE7404BBB
:1015B000404A1A607047404B404A1A6051E7404B1E
:1015C0001A68404BC2F342321A605EE73E4BDA685B
:1015D00022F08072DA6067E74FF080430022C3F8A0
:1015E0000C21C3F81021C3F8382571E7374B0322CB
:1015F0001A607BE7364A05211160012191679360EB
:10160000344B3F221A6080E74FF08052324BD2F8C1
:101610000414C3F82015D2F80814C3F82415D2F81E
:101620000C14C3F82815D2F81014C3F82C15D2F8EE
:101630001414C3F83015D2F81814C3F83415D2F8BE
:101640001C14C3F84015D2F82014C3F84415D2F87E
:101650002414C3F84815D2F82814C3F84C15D2F84E
:101660002C14C3F85015D2F83014C3F85415D2F81E
:101670003414C3F86015D2F83814C3F86415D2F8DE
:101680003C14C3F86815D2F84014C3F86C15D2F8AE
:101690004424C3F8702546E7E00F00F0E40F00F0A3
:1016A000E80F00F000ED00E000E001400400FA0562
:1016B000684000200090D00374C007400DF0ADBA20
:1016C000440200103C050040F0ED00E0A0050040A1
:1016D000105600401456004000C0004008B540B904
:1016E000044A53682BB1196851605B680020984721
:1016F000F6E708BDD4490020F0B50346186880F32A
:1017000008885868FF2464B2EFF30585002D40F087
:101710000280A64600472546064621273FBAF0B478
:101720000024002500260027F0B4F92040B200472D
:10173000F0BD00BF53EC102B33F0004110B408D0C3
:101740000F48A1F5801484420AD804205DF8044BA8
:101750007047002A0CBF022003205DF8044B70473D
:10176000B1F5801F01D20320F7E70648814201D07E
:101770000020F2E7D2F1010038BF0020EDE700BF02
:10178000FFFFDF7F0000F07F81F0004102E000BF3B
:1017900083F0004330B54FEA41044FEA430594EA31
:1017A000050F08BF90EA020F1FBF54EA000C55EA6C
:1017B000020C7FEA645C7FEA655C00F0E2804FEA3D
:1017C0005454D4EB5555B8BF6D420CDD2C4480EA1F
:1017D000020281EA030382EA000083EA010180EA4F
:1017E000020281EA0303362D88BF30BD11F0004F9D
:1017F0004FEA01314FF4801C4CEA113102D04042D3
:1018000061EB410113F0004F4FEA03334CEA13330D
:1018100002D0524263EB430394EA050F00F0A78025
:10182000A4F10104D5F1200E0DDB02FA0EFC22FA20
:1018300005F2801841F1000103FA0EF2801843FA14
:1018400005F359410EE0A5F120050EF1200E012A05
:1018500003FA0EFC28BF4CF0020C43FA05F3C01843
:1018600051EBE37101F0004507D54FF0000EDCF1BC
:10187000000C7EEB00006EEB0101B1F5801F1BD365
:10188000B1F5001F0CD349085FEA30004FEA3C0C69
:1018900004F101044FEA445212F5800F80F09A805F
:1018A000BCF1004F08BF5FEA500C50F1000041EB63
:1018B000045141EA050130BD5FEA4C0C404141EB67
:1018C000010111F4801FA4F10104E9D191F0000F8E
:1018D00004BF01460020B1FA81F308BF2033A3F111
:1018E0000B03B3F120020CDA0C3208DD02F1140C08
:1018F000C2F10C0201FA0CF021FA02F10CE002F143
:101900001402D8BFC2F1200C01FA02F120FA0CFC3B
:10191000DCBF41EA0C019040E41AA2BF01EB045184
:10192000294330BD6FEA04041F3C1CDA0C340EDC82
:1019300004F11404C4F1200220FA04F001FA02F3C5
:1019400040EA030021FA04F345EA030130BDC4F183
:101950000C04C4F1200220FA02F001FA04F340EA78
:101960000300294630BD21FA04F0294630BD94F029
:10197000000F83F4801306BF81F480110134013D10
:101980004EE77FEA645C18BF7FEA655C29D094EA81
:10199000050F08BF90EA020F05D054EA000C04BFFF
:1019A0001946104630BD91EA030F1EBF00210020EA
:1019B00030BD5FEA545C05D14000494128BF41F089
:1019C000004130BD14F580043CBF01F5801130BDED
:1019D00001F0004545F0FE4141F470014FF0000078
:1019E00030BD7FEA645C1ABF194610467FEA655C29
:1019F0001CBF0B46024650EA013406BF52EA0335CB
:101A000091EA030F41F4002130BD00BF90F0000FB8
:101A100004BF0021704730B54FF4806404F13204F4
:101A20004FF000054FF0000150E700BF90F0000FAD
:101A300004BF0021704730B54FF4806404F13204D4
:101A400010F0004548BF40424FF000013EE700BFA4
:101A500042004FEAE2014FEA31014FEA02701FBF34
:101A600012F07F4393F07F4F81F06051704792F006
:101A7000000F14BF93F07F4F704730B54FF4607480
:101A800001F0004521F0004120E700BF50EA0102CB
:101A900008BF704730B54FF000050AE050EA010278
:101AA00008BF704730B511F0004502D5404261EBE8
:101AB00041014FF4806404F132045FEA915C3FF429
:101AC000DCAE4FF003025FEADC0C18BF03325FEAC2
:101AD000DC0C18BF033202EBDC02C2F1200300FA77
:101AE00003FC20FA02F001FA03FE40EA0E0021FA9C
:101AF00002F11444C1E600BF70B54FF0FF0C4CF486
:101B0000E06C1CEA11541DBF1CEA135594EA0C0F3B
:101B100095EA0C0F00F0DEF82C4481EA030621EA76
:101B20004C5123EA4C5350EA013518BF52EA0335B1
:101B300041F4801143F4801338D0A0FB02CE4FF063
:101B40000005E1FB02E506F00042E0FB03E54FF093
:101B50000006E1FB03569CF0000F18BF4EF0010E8B
:101B6000A4F1FF04B6F5007F64F5407404D25FEA87
:101B70004E0E6D4146EB060642EAC62141EA55513A
:101B80004FEAC52040EA5E504FEACE2EB4F1FD0C7C
:101B900088BFBCF5E06F1ED8BEF1004F08BF5FEAFA
:101BA000500E50F1000041EB045170BD06F00046AC
:101BB00046EA010140EA020081EA0301B4EB5C0459
:101BC000C2BFD4EB0C0541EA045170BD41F4801151
:101BD0004FF0000E013C00F3AB8014F1360FDEBF76
:101BE000002001F0004170BDC4F10004203C35DA52
:101BF0000C341BDC04F11404C4F1200500FA05F3D5
:101C000020FA04F001FA05F240EA020001F0004275
:101C100021F0004110EBD37021FA04F642EB0601EB
:101C20005EEA430E08BF20EAD37070BDC4F10C0415
:101C3000C4F1200500FA04F320FA05F001FA04F2D9
:101C400040EA020001F0004110EBD37041F10001C5
:101C50005EEA430E08BF20EAD37070BDC4F12005D0
:101C600000FA05F24EEA020E20FA04F301FA05F238
:101C700043EA020321FA04F001F0004121FA04F2E0
:101C800020EA020000EBD3705EEA430E08BF20EAB0
:101C9000D37070BD94F0000F0FD101F000464000EA
:101CA00041EB010111F4801F08BF013CF7D041EA6C
:101CB000060195F0000F18BF704703F00046520070
:101CC00043EB030313F4801F08BF013DF7D043EA41
:101CD0000603704794EA0C0F0CEA135518BF95EAF7
:101CE0000C0F0CD050EA410618BF52EA4306D1D17E
:101CF00081EA030101F000414FF0000070BD50EA9D
:101D0000410606BF1046194652EA430619D094EA26
:101D10000C0F02D150EA013613D195EA0C0F05D110
:101D200052EA03361CBF104619460AD181EA030164
:101D300001F0004141F0FE4141F470014FF000001C
:101D400070BD41F0FE4141F4780170BD70B54FF0B7
:101D5000FF0C4CF4E06C1CEA11541DBF1CEA135537
:101D600094EA0C0F95EA0C0F00F0A7F8A4EB050419
:101D700081EA030E52EA03354FEA013100F0888010
:101D80004FEA03334FF0805545EA131343EA1263D9
:101D90004FEA022245EA111545EA10654FEA00268E
:101DA0000EF000419D4208BF964244F1FD0404F547
